{
  "contractName": "GradeManagement",
  "abi": [
    {
      "inputs": [
        {
          "internalType": "address",
          "name": "studentRegAddress",
          "type": "address"
        }
      ],
      "stateMutability": "nonpayable",
      "type": "constructor"
    },
    {
      "inputs": [
        {
          "internalType": "uint256",
          "name": "",
          "type": "uint256"
        }
      ],
      "name": "grades",
      "outputs": [
        {
          "internalType": "uint256",
          "name": "",
          "type": "uint256"
        }
      ],
      "stateMutability": "view",
      "type": "function",
      "constant": true
    },
    {
      "inputs": [
        {
          "internalType": "uint256",
          "name": "_studentId",
          "type": "uint256"
        },
        {
          "internalType": "uint256",
          "name": "_grade",
          "type": "uint256"
        }
      ],
      "name": "recordGrade",
      "outputs": [],
      "stateMutability": "nonpayable",
      "type": "function"
    },
    {
      "inputs": [
        {
          "internalType": "uint256",
          "name": "_studentId",
          "type": "uint256"
        }
      ],
      "name": "getGrade",
      "outputs": [
        {
          "internalType": "uint256",
          "name": "",
          "type": "uint256"
        }
      ],
      "stateMutability": "view",
      "type": "function",
      "constant": true
    }
  ],
  "bytecode": "0x608060405234801561001057600080fd5b506040516105bf3803806105bf8339818101604052810190610032919061008d565b806000806101000a81548173ffffffffffffffffffffffffffffffffffffffff021916908373ffffffffffffffffffffffffffffffffffffffff160217905550506100ff565b600081519050610087816100e8565b92915050565b60006020828403121561009f57600080fd5b60006100ad84828501610078565b91505092915050565b60006100c1826100c8565b9050919050565b600073ffffffffffffffffffffffffffffffffffffffff82169050919050565b6100f1816100b6565b81146100fc57600080fd5b50565b6104b18061010e6000396000f3fe608060405234801561001057600080fd5b50600436106100415760003560e01c806304be3da4146100465780634b22fc6214610062578063e1e0485e14610092575b600080fd5b610060600480360381019061005b9190610360565b6100c2565b005b61007c60048036038101906100779190610337565b6101c6565b604051610089919061040b565b60405180910390f35b6100ac60048036038101906100a79190610337565b6101de565b6040516100b9919061040b565b60405180910390f35b60008054906101000a900473ffffffffffffffffffffffffffffffffffffffff1673ffffffffffffffffffffffffffffffffffffffff1663ed45f8a2836040518263ffffffff1660e01b815260040161011b919061040b565b60206040518083038186803b15801561013357600080fd5b505afa158015610147573d6000803e3d6000fd5b505050506040513d601f19601f8201168201806040525081019061016b919061030e565b6101aa576040517f08c379a00000000000000000000000000000000000000000000000000000000081526004016101a1906103eb565b60405180910390fd5b8060016000848152602001908152602001600020819055505050565b60016020528060005260406000206000915090505481565b60008060009054906101000a900473ffffffffffffffffffffffffffffffffffffffff1673ffffffffffffffffffffffffffffffffffffffff1663ed45f8a2836040518263ffffffff1660e01b815260040161023a919061040b565b60206040518083038186803b15801561025257600080fd5b505afa158015610266573d6000803e3d6000fd5b505050506040513d601f19601f8201168201806040525081019061028a919061030e565b6102c9576040517f08c379a00000000000000000000000000000000000000000000000000000000081526004016102c0906103eb565b60405180910390fd5b60016000838152602001908152602001600020549050919050565b6000815190506102f38161044d565b92915050565b60008135905061030881610464565b92915050565b60006020828403121561032057600080fd5b600061032e848285016102e4565b91505092915050565b60006020828403121561034957600080fd5b6000610357848285016102f9565b91505092915050565b6000806040838503121561037357600080fd5b6000610381858286016102f9565b9250506020610392858286016102f9565b9150509250929050565b60006103a9601683610426565b91507f53747564656e74206e6f742072656769737465726564000000000000000000006000830152602082019050919050565b6103e581610443565b82525050565b600060208201905081810360008301526104048161039c565b9050919050565b600060208201905061042060008301846103dc565b92915050565b600082825260208201905092915050565b60008115159050919050565b6000819050919050565b61045681610437565b811461046157600080fd5b50565b61046d81610443565b811461047857600080fd5b5056fea2646970667358221220faa3f9eb4d8db4dca013599d5a88efbfb4afbf2e0437c4fc7ba167da07970cb264736f6c63430008000033",
  "immutableReferences": {},
  "source": "// SPDX-License-Identifier: MIT\r\npragma solidity ^0.8.0;\r\n\r\nimport \"./StudentRegistration.sol\";\r\n\r\ncontract GradeManagement {\r\n    StudentRegistration studentRegistration;\r\n\r\n    mapping(uint256 => uint256) public grades;\r\n\r\n    modifier onlyAuthorized() {\r\n        // Implement your logic for authorization\r\n        _;\r\n    }\r\n\r\n    constructor(address studentRegAddress) {\r\n        studentRegistration = StudentRegistration(studentRegAddress);\r\n    }\r\n\r\n    function recordGrade(uint256 _studentId, uint256 _grade) public onlyAuthorized {\r\n        require(studentRegistration.isStudentRegistered(_studentId), \"Student not registered\");\r\n        grades[_studentId] = _grade;\r\n        // Emit an event here if needed\r\n    }\r\n\r\n    function getGrade(uint256 _studentId) public view returns (uint256) {\r\n        require(studentRegistration.isStudentRegistered(_studentId), \"Student not registered\");\r\n        return grades[_studentId];\r\n    }\r\n}\r\n",
  "sourcePath": "C:\\Users\\marti\\Documents\\projects\\school-system-dapp\\contracts\\GradeManagement.sol",
  "compiler": {
    "name": "solc",
    "version": "0.8.0+commit.c7dfd78e.Emscripten.clang"
  },
  "schemaVersion": "3.4.16",
  "updatedAt": "2024-01-19T11:27:59.207Z",
  "networkType": "ethereum",
  "devdoc": {
    "kind": "dev",
    "methods": {},
    "version": 1
  },
  "userdoc": {
    "kind": "user",
    "methods": {},
    "version": 1
  }
}