{
  "contractName": "GradeManagement",
  "abi": [
    {
      "inputs": [
        {
          "internalType": "address",
          "name": "studentRegAddress",
          "type": "address"
        }
      ],
      "stateMutability": "nonpayable",
      "type": "constructor"
    },
    {
      "inputs": [
        {
          "internalType": "uint256",
          "name": "_studentId",
          "type": "uint256"
        },
        {
          "internalType": "string",
          "name": "_subject",
          "type": "string"
        },
        {
          "internalType": "uint256",
          "name": "_grade",
          "type": "uint256"
        }
      ],
      "name": "recordGrade",
      "outputs": [],
      "stateMutability": "nonpayable",
      "type": "function"
    },
    {
      "inputs": [
        {
          "internalType": "uint256",
          "name": "_studentId",
          "type": "uint256"
        },
        {
          "internalType": "string",
          "name": "_subject",
          "type": "string"
        }
      ],
      "name": "getGrade",
      "outputs": [
        {
          "internalType": "uint256",
          "name": "",
          "type": "uint256"
        }
      ],
      "stateMutability": "view",
      "type": "function",
      "constant": true
    },
    {
      "inputs": [
        {
          "internalType": "uint256",
          "name": "_studentId",
          "type": "uint256"
        },
        {
          "internalType": "string",
          "name": "_subject",
          "type": "string"
        }
      ],
      "name": "getStudentGrades",
      "outputs": [
        {
          "internalType": "uint256",
          "name": "",
          "type": "uint256"
        }
      ],
      "stateMutability": "view",
      "type": "function",
      "constant": true
    },
    {
      "inputs": [
        {
          "internalType": "uint256",
          "name": "_studentId",
          "type": "uint256"
        },
        {
          "internalType": "string[]",
          "name": "_subjects",
          "type": "string[]"
        }
      ],
      "name": "getGradesForStudent",
      "outputs": [
        {
          "internalType": "uint256[]",
          "name": "",
          "type": "uint256[]"
        }
      ],
      "stateMutability": "view",
      "type": "function",
      "constant": true
    }
  ],
  "bytecode": "0x608060405234801561001057600080fd5b50604051610dd5380380610dd58339818101604052810190610032919061008d565b806000806101000a81548173ffffffffffffffffffffffffffffffffffffffff021916908373ffffffffffffffffffffffffffffffffffffffff160217905550506100ff565b600081519050610087816100e8565b92915050565b60006020828403121561009f57600080fd5b60006100ad84828501610078565b91505092915050565b60006100c1826100c8565b9050919050565b600073ffffffffffffffffffffffffffffffffffffffff82169050919050565b6100f1816100b6565b81146100fc57600080fd5b50565b610cc78061010e6000396000f3fe608060405234801561001057600080fd5b506004361061004c5760003560e01c806350abc9ea146100515780639af3425014610081578063b2766fea146100b1578063fffbc7dc146100cd575b600080fd5b61006b60048036038101906100669190610843565b6100fd565b6040516100789190610a5c565b60405180910390f35b61009b600480360381019061009691906107ef565b610223565b6040516100a89190610a1a565b60405180910390f35b6100cb60048036038101906100c69190610897565b610463565b005b6100e760048036038101906100e29190610843565b610587565b6040516100f49190610a5c565b60405180910390f35b60008060009054906101000a900473ffffffffffffffffffffffffffffffffffffffff1673ffffffffffffffffffffffffffffffffffffffff1663ed45f8a2846040518263ffffffff1660e01b81526004016101599190610a5c565b60206040518083038186803b15801561017157600080fd5b505afa158015610185573d6000803e3d6000fd5b505050506040513d601f19601f820116820180604052508101906101a991906107c6565b6101e8576040517f08c379a00000000000000000000000000000000000000000000000000000000081526004016101df90610a3c565b60405180910390fd5b600160008481526020019081526020016000206000018260405161020c9190610a03565b908152602001604051809103902054905092915050565b606060008054906101000a900473ffffffffffffffffffffffffffffffffffffffff1673ffffffffffffffffffffffffffffffffffffffff1663ed45f8a2846040518263ffffffff1660e01b815260040161027e9190610a5c565b60206040518083038186803b15801561029657600080fd5b505afa1580156102aa573d6000803e3d6000fd5b505050506040513d601f19601f820116820180604052508101906102ce91906107c6565b61030d576040517f08c379a000000000000000000000000000000000000000000000000000000000815260040161030490610a3c565b60405180910390fd5b6000825167ffffffffffffffff811115610350577f4e487b7100000000000000000000000000000000000000000000000000000000600052604160045260246000fd5b60405190808252806020026020018201604052801561037e5781602001602082028036833780820191505090505b50905060005b835181101561045857600160008681526020019081526020016000206000018482815181106103dc577f4e487b7100000000000000000000000000000000000000000000000000000000600052603260045260246000fd5b60200260200101516040516103f19190610a03565b908152602001604051809103902054828281518110610439577f4e487b7100000000000000000000000000000000000000000000000000000000600052603260045260246000fd5b602002602001018181525050808061045090610bbc565b915050610384565b508091505092915050565b60008054906101000a900473ffffffffffffffffffffffffffffffffffffffff1673ffffffffffffffffffffffffffffffffffffffff1663ed45f8a2846040518263ffffffff1660e01b81526004016104bc9190610a5c565b60206040518083038186803b1580156104d457600080fd5b505afa1580156104e8573d6000803e3d6000fd5b505050506040513d601f19601f8201168201806040525081019061050c91906107c6565b61054b576040517f08c379a000000000000000000000000000000000000000000000000000000000815260040161054290610a3c565b60405180910390fd5b8060016000858152602001908152602001600020600001836040516105709190610a03565b908152602001604051809103902081905550505050565b60008060009054906101000a900473ffffffffffffffffffffffffffffffffffffffff1673ffffffffffffffffffffffffffffffffffffffff1663ed45f8a2846040518263ffffffff1660e01b81526004016105e39190610a5c565b60206040518083038186803b1580156105fb57600080fd5b505afa15801561060f573d6000803e3d6000fd5b505050506040513d601f19601f8201168201806040525081019061063391906107c6565b610672576040517f08c379a000000000000000000000000000000000000000000000000000000000815260040161066990610a3c565b60405180910390fd5b60016000848152602001908152602001600020600001826040516106969190610a03565b908152602001604051809103902054905092915050565b60006106c06106bb84610aa8565b610a77565b9050808382526020820190508260005b8581101561070057813585016106e68882610787565b8452602084019350602083019250506001810190506106d0565b5050509392505050565b600061071d61071884610ad4565b610a77565b90508281526020810184848401111561073557600080fd5b610740848285610b7a565b509392505050565b600082601f83011261075957600080fd5b81356107698482602086016106ad565b91505092915050565b60008151905061078181610c63565b92915050565b600082601f83011261079857600080fd5b81356107a884826020860161070a565b91505092915050565b6000813590506107c081610c7a565b92915050565b6000602082840312156107d857600080fd5b60006107e684828501610772565b91505092915050565b6000806040838503121561080257600080fd5b6000610810858286016107b1565b925050602083013567ffffffffffffffff81111561082d57600080fd5b61083985828601610748565b9150509250929050565b6000806040838503121561085657600080fd5b6000610864858286016107b1565b925050602083013567ffffffffffffffff81111561088157600080fd5b61088d85828601610787565b9150509250929050565b6000806000606084860312156108ac57600080fd5b60006108ba868287016107b1565b935050602084013567ffffffffffffffff8111156108d757600080fd5b6108e386828701610787565b92505060406108f4868287016107b1565b9150509250925092565b600061090a83836109e5565b60208301905092915050565b600061092182610b14565b61092b8185610b37565b935061093683610b04565b8060005b8381101561096757815161094e88826108fe565b975061095983610b2a565b92505060018101905061093a565b5085935050505092915050565b600061097f82610b1f565b6109898185610b59565b9350610999818560208601610b89565b80840191505092915050565b60006109b2601683610b48565b91507f53747564656e74206e6f742072656769737465726564000000000000000000006000830152602082019050919050565b6109ee81610b70565b82525050565b6109fd81610b70565b82525050565b6000610a0f8284610974565b915081905092915050565b60006020820190508181036000830152610a348184610916565b905092915050565b60006020820190508181036000830152610a55816109a5565b9050919050565b6000602082019050610a7160008301846109f4565b92915050565b6000604051905081810181811067ffffffffffffffff82111715610a9e57610a9d610c34565b5b8060405250919050565b600067ffffffffffffffff821115610ac357610ac2610c34565b5b602082029050602081019050919050565b600067ffffffffffffffff821115610aef57610aee610c34565b5b601f19601f8301169050602081019050919050565b6000819050602082019050919050565b600081519050919050565b600081519050919050565b6000602082019050919050565b600082825260208201905092915050565b600082825260208201905092915050565b600081905092915050565b60008115159050919050565b6000819050919050565b82818337600083830152505050565b60005b83811015610ba7578082015181840152602081019050610b8c565b83811115610bb6576000848401525b50505050565b6000610bc782610b70565b91507fffffffffffffffffffffffffffffffffffffffffffffffffffffffffffffffff821415610bfa57610bf9610c05565b5b600182019050919050565b7f4e487b7100000000000000000000000000000000000000000000000000000000600052601160045260246000fd5b7f4e487b7100000000000000000000000000000000000000000000000000000000600052604160045260246000fd5b610c6c81610b64565b8114610c7757600080fd5b50565b610c8381610b70565b8114610c8e57600080fd5b5056fea2646970667358221220de2f197682acc657c600b2c3cbb455aca3a98082cdff4e7ac34f3fe240f1006264736f6c63430008000033",
  "immutableReferences": {},
  "source": "// SPDX-License-Identifier: MIT\r\npragma solidity ^0.8.0;\r\n\r\nimport \"./StudentRegistration.sol\";\r\n\r\ncontract GradeManagement {\r\n    StudentRegistration studentRegistration;\r\n\r\n    struct Grade {\r\n        mapping(string => uint256) subjectGrades;\r\n    }\r\n\r\n    mapping(uint256 => Grade) private studentGrades;\r\n\r\n    modifier onlyAuthorized() {\r\n        // Implement your logic for authorization\r\n        _;\r\n    }\r\n\r\n    constructor(address studentRegAddress) {\r\n        studentRegistration = StudentRegistration(studentRegAddress);\r\n    }\r\n\r\n    function recordGrade(uint256 _studentId, string memory _subject, uint256 _grade) public onlyAuthorized {\r\n        require(studentRegistration.isStudentRegistered(_studentId), \"Student not registered\");\r\n        studentGrades[_studentId].subjectGrades[_subject] = _grade;\r\n    }\r\n\r\n    function getGrade(uint256 _studentId, string memory _subject) public view returns (uint256) {\r\n        require(studentRegistration.isStudentRegistered(_studentId), \"Student not registered\");\r\n        return studentGrades[_studentId].subjectGrades[_subject];\r\n    }\r\n\r\n    // Public function to access grades\r\n    function getStudentGrades(uint256 _studentId, string memory _subject) public view returns (uint256) {\r\n        require(studentRegistration.isStudentRegistered(_studentId), \"Student not registered\");\r\n        return studentGrades[_studentId].subjectGrades[_subject];\r\n    }\r\n\r\n    // Function to return a list of subjects and grades for a student\r\n    function getGradesForStudent(uint256 _studentId, string[] memory _subjects) public view returns (uint256[] memory) {\r\n        require(studentRegistration.isStudentRegistered(_studentId), \"Student not registered\");\r\n\r\n        uint256[] memory grades = new uint256[](_subjects.length);\r\n        for (uint i = 0; i < _subjects.length; i++) {\r\n            grades[i] = studentGrades[_studentId].subjectGrades[_subjects[i]];\r\n        }\r\n        return grades;\r\n    }\r\n\r\n}\r\n",
  "sourcePath": "C:\\Users\\marti\\Documents\\projects\\school-system-dapp\\contracts\\GradeManagement.sol",
  "compiler": {
    "name": "solc",
    "version": "0.8.0+commit.c7dfd78e.Emscripten.clang"
  },
  "schemaVersion": "3.4.16",
  "updatedAt": "2024-03-22T12:13:17.741Z",
  "networkType": "ethereum",
  "devdoc": {
    "kind": "dev",
    "methods": {},
    "version": 1
  },
  "userdoc": {
    "kind": "user",
    "methods": {},
    "version": 1
  }
}