{
  "contractName": "HomeworkManagement",
  "abi": [
    {
      "inputs": [
        {
          "internalType": "address",
          "name": "studentRegAddress",
          "type": "address"
        }
      ],
      "stateMutability": "nonpayable",
      "type": "constructor"
    },
    {
      "anonymous": false,
      "inputs": [
        {
          "indexed": false,
          "internalType": "uint256",
          "name": "homeworkId",
          "type": "uint256"
        },
        {
          "indexed": false,
          "internalType": "string",
          "name": "description",
          "type": "string"
        }
      ],
      "name": "HomeworkAssigned",
      "type": "event"
    },
    {
      "anonymous": false,
      "inputs": [
        {
          "indexed": false,
          "internalType": "uint256",
          "name": "studentId",
          "type": "uint256"
        },
        {
          "indexed": false,
          "internalType": "uint256",
          "name": "homeworkId",
          "type": "uint256"
        }
      ],
      "name": "HomeworkCompleted",
      "type": "event"
    },
    {
      "inputs": [],
      "name": "homeworkCount",
      "outputs": [
        {
          "internalType": "uint256",
          "name": "",
          "type": "uint256"
        }
      ],
      "stateMutability": "view",
      "type": "function"
    },
    {
      "inputs": [
        {
          "internalType": "uint256",
          "name": "",
          "type": "uint256"
        }
      ],
      "name": "homeworks",
      "outputs": [
        {
          "internalType": "uint256",
          "name": "id",
          "type": "uint256"
        },
        {
          "internalType": "string",
          "name": "description",
          "type": "string"
        },
        {
          "internalType": "uint256",
          "name": "dueDate",
          "type": "uint256"
        }
      ],
      "stateMutability": "view",
      "type": "function"
    },
    {
      "inputs": [
        {
          "internalType": "uint256",
          "name": "",
          "type": "uint256"
        },
        {
          "internalType": "uint256",
          "name": "",
          "type": "uint256"
        }
      ],
      "name": "studentHomeworkCompletion",
      "outputs": [
        {
          "internalType": "bool",
          "name": "",
          "type": "bool"
        }
      ],
      "stateMutability": "view",
      "type": "function"
    },
    {
      "inputs": [
        {
          "internalType": "string",
          "name": "_description",
          "type": "string"
        },
        {
          "internalType": "uint256",
          "name": "_dueDate",
          "type": "uint256"
        }
      ],
      "name": "createHomework",
      "outputs": [],
      "stateMutability": "nonpayable",
      "type": "function"
    },
    {
      "inputs": [
        {
          "internalType": "uint256",
          "name": "_studentId",
          "type": "uint256"
        },
        {
          "internalType": "uint256",
          "name": "_homeworkId",
          "type": "uint256"
        }
      ],
      "name": "markHomeworkAsCompleted",
      "outputs": [],
      "stateMutability": "nonpayable",
      "type": "function"
    },
    {
      "inputs": [
        {
          "internalType": "uint256",
          "name": "_studentId",
          "type": "uint256"
        },
        {
          "internalType": "uint256",
          "name": "_homeworkId",
          "type": "uint256"
        }
      ],
      "name": "isHomeworkCompleted",
      "outputs": [
        {
          "internalType": "bool",
          "name": "",
          "type": "bool"
        }
      ],
      "stateMutability": "view",
      "type": "function"
    },
    {
      "inputs": [
        {
          "internalType": "uint256",
          "name": "_studentId",
          "type": "uint256"
        },
        {
          "internalType": "uint256[]",
          "name": "_homeworkIds",
          "type": "uint256[]"
        }
      ],
      "name": "getHomeworkStatusesForStudent",
      "outputs": [
        {
          "internalType": "bool[]",
          "name": "",
          "type": "bool[]"
        }
      ],
      "stateMutability": "view",
      "type": "function"
    }
  ],
  "bytecode": "0x6080604052600060015534801561001557600080fd5b50604051620011b4380380620011b483398181016040528101906100399190610094565b806000806101000a81548173ffffffffffffffffffffffffffffffffffffffff021916908373ffffffffffffffffffffffffffffffffffffffff16021790555050610106565b60008151905061008e816100ef565b92915050565b6000602082840312156100a657600080fd5b60006100b48482850161007f565b91505092915050565b60006100c8826100cf565b9050919050565b600073ffffffffffffffffffffffffffffffffffffffff82169050919050565b6100f8816100bd565b811461010357600080fd5b50565b61109e80620001166000396000f3fe608060405234801561001057600080fd5b506004361061007d5760003560e01c8063897996d81161005b578063897996d8146100fe5780639bf2883e1461011c578063d606f6e914610138578063d7e102f7146101685761007d565b80632a4095e9146100825780632be4551b146100b257806339088cbf146100e2575b600080fd5b61009c60048036038101906100979190610acc565b61019a565b6040516100a99190610cb8565b60405180910390f35b6100cc60048036038101906100c79190610b20565b6103df565b6040516100d99190610cda565b60405180910390f35b6100fc60048036038101906100f79190610a4f565b61040e565b005b6101066104cb565b6040516101139190610d35565b60405180910390f35b61013660048036038101906101319190610b20565b6104d1565b005b610152600480360381019061014d9190610b20565b610684565b60405161015f9190610cda565b60405180910390f35b610182600480360381019061017d9190610aa3565b6107a9565b60405161019193929190610d80565b60405180910390f35b606060008054906101000a900473ffffffffffffffffffffffffffffffffffffffff1673ffffffffffffffffffffffffffffffffffffffff1663ed45f8a2846040518263ffffffff1660e01b81526004016101f59190610d35565b60206040518083038186803b15801561020d57600080fd5b505afa158015610221573d6000803e3d6000fd5b505050506040513d601f19601f820116820180604052508101906102459190610a26565b610284576040517f08c379a000000000000000000000000000000000000000000000000000000000815260040161027b90610cf5565b60405180910390fd5b6000825167ffffffffffffffff8111156102c7577f4e487b7100000000000000000000000000000000000000000000000000000000600052604160045260246000fd5b6040519080825280602002602001820160405280156102f55781602001602082028036833780820191505090505b50905060005b83518110156103d457600360008681526020019081526020016000206000858381518110610352577f4e487b7100000000000000000000000000000000000000000000000000000000600052603260045260246000fd5b6020026020010151815260200190815260200160002060009054906101000a900460ff168282815181106103af577f4e487b7100000000000000000000000000000000000000000000000000000000600052603260045260246000fd5b60200260200101901515908115158152505080806103cc90610f53565b9150506102fb565b508091505092915050565b60036020528160005260406000206020528060005260406000206000915091509054906101000a900460ff1681565b6001600081548092919061042190610f53565b9190505550604051806060016040528060015481526020018381526020018281525060026000600154815260200190815260200160002060008201518160000155602082015181600101908051906020019061047e92919061085b565b50604082015181600201559050507ffea970629a486dd0f6d17d4f5a62c3bec7852b082e44f49e5fa01a111c8298ff600154836040516104bf929190610d50565b60405180910390a15050565b60015481565b60008054906101000a900473ffffffffffffffffffffffffffffffffffffffff1673ffffffffffffffffffffffffffffffffffffffff1663ed45f8a2836040518263ffffffff1660e01b815260040161052a9190610d35565b60206040518083038186803b15801561054257600080fd5b505afa158015610556573d6000803e3d6000fd5b505050506040513d601f19601f8201168201806040525081019061057a9190610a26565b6105b9576040517f08c379a00000000000000000000000000000000000000000000000000000000081526004016105b090610cf5565b60405180910390fd5b6000811180156105cb57506001548111155b61060a576040517f08c379a000000000000000000000000000000000000000000000000000000000815260040161060190610d15565b60405180910390fd5b600160036000848152602001908152602001600020600083815260200190815260200160002060006101000a81548160ff0219169083151502179055507f91c774f49ede50ca79ecf7722b975eb71cd01c6651c52c35158c23954913cc0b8282604051610678929190610dbe565b60405180910390a15050565b60008060009054906101000a900473ffffffffffffffffffffffffffffffffffffffff1673ffffffffffffffffffffffffffffffffffffffff1663ed45f8a2846040518263ffffffff1660e01b81526004016106e09190610d35565b60206040518083038186803b1580156106f857600080fd5b505afa15801561070c573d6000803e3d6000fd5b505050506040513d601f19601f820116820180604052508101906107309190610a26565b61076f576040517f08c379a000000000000000000000000000000000000000000000000000000000815260040161076690610cf5565b60405180910390fd5b60036000848152602001908152602001600020600083815260200190815260200160002060009054906101000a900460ff16905092915050565b60026020528060005260406000206000915090508060000154908060010180546107d290610f21565b80601f01602080910402602001604051908101604052809291908181526020018280546107fe90610f21565b801561084b5780601f106108205761010080835404028352916020019161084b565b820191906000526020600020905b81548152906001019060200180831161082e57829003601f168201915b5050505050908060020154905083565b82805461086790610f21565b90600052602060002090601f01602090048101928261088957600085556108d0565b82601f106108a257805160ff19168380011785556108d0565b828001600101855582156108d0579182015b828111156108cf5782518255916020019190600101906108b4565b5b5090506108dd91906108e1565b5090565b5b808211156108fa5760008160009055506001016108e2565b5090565b600061091161090c84610e18565b610de7565b9050808382526020820190508285602086028201111561093057600080fd5b60005b8581101561096057816109468882610a11565b845260208401935060208301925050600181019050610933565b5050509392505050565b600061097d61097884610e44565b610de7565b90508281526020810184848401111561099557600080fd5b6109a0848285610edf565b509392505050565b600082601f8301126109b957600080fd5b81356109c98482602086016108fe565b91505092915050565b6000815190506109e18161103a565b92915050565b600082601f8301126109f857600080fd5b8135610a0884826020860161096a565b91505092915050565b600081359050610a2081611051565b92915050565b600060208284031215610a3857600080fd5b6000610a46848285016109d2565b91505092915050565b60008060408385031215610a6257600080fd5b600083013567ffffffffffffffff811115610a7c57600080fd5b610a88858286016109e7565b9250506020610a9985828601610a11565b9150509250929050565b600060208284031215610ab557600080fd5b6000610ac384828501610a11565b91505092915050565b60008060408385031215610adf57600080fd5b6000610aed85828601610a11565b925050602083013567ffffffffffffffff811115610b0a57600080fd5b610b16858286016109a8565b9150509250929050565b60008060408385031215610b3357600080fd5b6000610b4185828601610a11565b9250506020610b5285828601610a11565b9150509250929050565b6000610b688383610bd2565b60208301905092915050565b6000610b7f82610e84565b610b898185610ea7565b9350610b9483610e74565b8060005b83811015610bc5578151610bac8882610b5c565b9750610bb783610e9a565b925050600181019050610b98565b5085935050505092915050565b610bdb81610ec9565b82525050565b610bea81610ec9565b82525050565b6000610bfb82610e8f565b610c058185610eb8565b9350610c15818560208601610eee565b610c1e81611029565b840191505092915050565b6000610c36601683610eb8565b91507f53747564656e74206e6f742072656769737465726564000000000000000000006000830152602082019050919050565b6000610c76601383610eb8565b91507f496e76616c696420686f6d65776f726b204944000000000000000000000000006000830152602082019050919050565b610cb281610ed5565b82525050565b60006020820190508181036000830152610cd28184610b74565b905092915050565b6000602082019050610cef6000830184610be1565b92915050565b60006020820190508181036000830152610d0e81610c29565b9050919050565b60006020820190508181036000830152610d2e81610c69565b9050919050565b6000602082019050610d4a6000830184610ca9565b92915050565b6000604082019050610d656000830185610ca9565b8181036020830152610d778184610bf0565b90509392505050565b6000606082019050610d956000830186610ca9565b8181036020830152610da78185610bf0565b9050610db66040830184610ca9565b949350505050565b6000604082019050610dd36000830185610ca9565b610de06020830184610ca9565b9392505050565b6000604051905081810181811067ffffffffffffffff82111715610e0e57610e0d610ffa565b5b8060405250919050565b600067ffffffffffffffff821115610e3357610e32610ffa565b5b602082029050602081019050919050565b600067ffffffffffffffff821115610e5f57610e5e610ffa565b5b601f19601f8301169050602081019050919050565b6000819050602082019050919050565b600081519050919050565b600081519050919050565b6000602082019050919050565b600082825260208201905092915050565b600082825260208201905092915050565b60008115159050919050565b6000819050919050565b82818337600083830152505050565b60005b83811015610f0c578082015181840152602081019050610ef1565b83811115610f1b576000848401525b50505050565b60006002820490506001821680610f3957607f821691505b60208210811415610f4d57610f4c610fcb565b5b50919050565b6000610f5e82610ed5565b91507fffffffffffffffffffffffffffffffffffffffffffffffffffffffffffffffff821415610f9157610f90610f9c565b5b600182019050919050565b7f4e487b7100000000000000000000000000000000000000000000000000000000600052601160045260246000fd5b7f4e487b7100000000000000000000000000000000000000000000000000000000600052602260045260246000fd5b7f4e487b7100000000000000000000000000000000000000000000000000000000600052604160045260246000fd5b6000601f19601f8301169050919050565b61104381610ec9565b811461104e57600080fd5b50565b61105a81610ed5565b811461106557600080fd5b5056fea264697066735822122006fb5da6b8d0152150aba8eeb9724dd9c862f30a272d6a2ee603246a85f6e8d464736f6c63430008000033",
  "immutableReferences": {},
  "source": "// SPDX-License-Identifier: MIT\r\npragma solidity ^0.8.0;\r\n\r\nimport \"./StudentRegistration.sol\";\r\n\r\ncontract HomeworkManagement {\r\n    StudentRegistration studentRegistration;\r\n\r\n    struct Homework {\r\n        uint256 id;\r\n        string description;\r\n        uint256 dueDate;\r\n    }\r\n\r\n    uint256 public homeworkCount = 0;\r\n    mapping(uint256 => Homework) public homeworks;\r\n    mapping(uint256 => mapping(uint256 => bool)) public studentHomeworkCompletion; // Mapping from student ID to homework ID to completion status\r\n\r\n    event HomeworkAssigned(uint256 homeworkId, string description);\r\n    event HomeworkCompleted(uint256 studentId, uint256 homeworkId);\r\n\r\n    constructor(address studentRegAddress) {\r\n        studentRegistration = StudentRegistration(studentRegAddress);\r\n    }\r\n\r\n    function createHomework(string memory _description, uint256 _dueDate) public {\r\n        // Add authorization check if needed\r\n        homeworkCount++;\r\n        homeworks[homeworkCount] = Homework(homeworkCount, _description, _dueDate);\r\n        emit HomeworkAssigned(homeworkCount, _description);\r\n    }\r\n\r\n    function markHomeworkAsCompleted(uint256 _studentId, uint256 _homeworkId) public {\r\n        require(studentRegistration.isStudentRegistered(_studentId), \"Student not registered\");\r\n        require(_homeworkId > 0 && _homeworkId <= homeworkCount, \"Invalid homework ID\");\r\n        studentHomeworkCompletion[_studentId][_homeworkId] = true;\r\n        emit HomeworkCompleted(_studentId, _homeworkId);\r\n    }\r\n\r\n    function isHomeworkCompleted(uint256 _studentId, uint256 _homeworkId) public view returns (bool) {\r\n        require(studentRegistration.isStudentRegistered(_studentId), \"Student not registered\");\r\n        return studentHomeworkCompletion[_studentId][_homeworkId];\r\n    }\r\n\r\n    // Function to return a list of homework IDs and completion status\r\n    function getHomeworkStatusesForStudent(uint256 _studentId, uint256[] memory _homeworkIds) public view returns (bool[] memory) {\r\n        require(studentRegistration.isStudentRegistered(_studentId), \"Student not registered\");\r\n\r\n        bool[] memory statuses = new bool[](_homeworkIds.length);\r\n        for (uint i = 0; i < _homeworkIds.length; i++) {\r\n            statuses[i] = studentHomeworkCompletion[_studentId][_homeworkIds[i]];\r\n        }\r\n        return statuses;\r\n    }\r\n\r\n}\r\n",
  "sourcePath": "C:\\Users\\marti\\Documents\\projects\\school-system-dapp\\contracts\\HomeworkManagement.sol",
  "compiler": {
    "name": "solc",
    "version": "0.8.0+commit.c7dfd78e.Emscripten.clang"
  },
  "schemaVersion": "3.4.16",
  "updatedAt": "2024-03-21T11:53:03.859Z",
  "devdoc": {
    "kind": "dev",
    "methods": {},
    "version": 1
  },
  "userdoc": {
    "kind": "user",
    "methods": {},
    "version": 1
  }
}