{
  "contractName": "PointsManagement",
  "abi": [
    {
      "inputs": [
        {
          "internalType": "address",
          "name": "studentRegAddress",
          "type": "address"
        }
      ],
      "stateMutability": "nonpayable",
      "type": "constructor"
    },
    {
      "anonymous": false,
      "inputs": [
        {
          "indexed": false,
          "internalType": "uint256",
          "name": "studentId",
          "type": "uint256"
        },
        {
          "indexed": false,
          "internalType": "uint256",
          "name": "points",
          "type": "uint256"
        }
      ],
      "name": "PointsAwarded",
      "type": "event"
    },
    {
      "anonymous": false,
      "inputs": [
        {
          "indexed": false,
          "internalType": "uint256",
          "name": "studentId",
          "type": "uint256"
        },
        {
          "indexed": false,
          "internalType": "uint256",
          "name": "points",
          "type": "uint256"
        }
      ],
      "name": "PointsRedeemed",
      "type": "event"
    },
    {
      "inputs": [
        {
          "internalType": "uint256",
          "name": "",
          "type": "uint256"
        }
      ],
      "name": "studentPoints",
      "outputs": [
        {
          "internalType": "uint256",
          "name": "",
          "type": "uint256"
        }
      ],
      "stateMutability": "view",
      "type": "function",
      "constant": true
    },
    {
      "inputs": [
        {
          "internalType": "uint256",
          "name": "_studentId",
          "type": "uint256"
        },
        {
          "internalType": "uint256",
          "name": "_points",
          "type": "uint256"
        }
      ],
      "name": "awardPoints",
      "outputs": [],
      "stateMutability": "nonpayable",
      "type": "function"
    },
    {
      "inputs": [
        {
          "internalType": "uint256",
          "name": "_studentId",
          "type": "uint256"
        },
        {
          "internalType": "uint256",
          "name": "_points",
          "type": "uint256"
        }
      ],
      "name": "redeemPoints",
      "outputs": [],
      "stateMutability": "nonpayable",
      "type": "function"
    },
    {
      "inputs": [
        {
          "internalType": "uint256",
          "name": "_studentId",
          "type": "uint256"
        }
      ],
      "name": "getPoints",
      "outputs": [
        {
          "internalType": "uint256",
          "name": "",
          "type": "uint256"
        }
      ],
      "stateMutability": "view",
      "type": "function",
      "constant": true
    }
  ],
  "bytecode": "0x608060405234801561001057600080fd5b506040516109183803806109188339818101604052810190610032919061008d565b806000806101000a81548173ffffffffffffffffffffffffffffffffffffffff021916908373ffffffffffffffffffffffffffffffffffffffff160217905550506100ff565b600081519050610087816100e8565b92915050565b60006020828403121561009f57600080fd5b60006100ad84828501610078565b91505092915050565b60006100c1826100c8565b9050919050565b600073ffffffffffffffffffffffffffffffffffffffff82169050919050565b6100f1816100b6565b81146100fc57600080fd5b50565b61080a8061010e6000396000f3fe608060405234801561001057600080fd5b506004361061004c5760003560e01c8063894b699e146100515780639bcc49fa1461006d578063a967eee41461009d578063c2e70431146100cd575b600080fd5b61006b60048036038101906100669190610577565b6100e9565b005b6100876004803603810190610082919061054e565b610238565b6040516100949190610682565b60405180910390f35b6100b760048036038101906100b2919061054e565b610250565b6040516100c49190610682565b60405180910390f35b6100e760048036038101906100e29190610577565b610356565b005b60008054906101000a900473ffffffffffffffffffffffffffffffffffffffff1673ffffffffffffffffffffffffffffffffffffffff1663ed45f8a2836040518263ffffffff1660e01b81526004016101429190610682565b60206040518083038186803b15801561015a57600080fd5b505afa15801561016e573d6000803e3d6000fd5b505050506040513d601f19601f820116820180604052508101906101929190610525565b6101d1576040517f08c379a00000000000000000000000000000000000000000000000000000000081526004016101c890610642565b60405180910390fd5b806001600084815260200190815260200160002060008282546101f491906106d7565b925050819055507f75b02534ae1611e9f2f7a315c5b70f88008f8164323b9baa4c454aa5a6f894d8828260405161022c92919061069d565b60405180910390a15050565b60016020528060005260406000206000915090505481565b60008060009054906101000a900473ffffffffffffffffffffffffffffffffffffffff1673ffffffffffffffffffffffffffffffffffffffff1663ed45f8a2836040518263ffffffff1660e01b81526004016102ac9190610682565b60206040518083038186803b1580156102c457600080fd5b505afa1580156102d8573d6000803e3d6000fd5b505050506040513d601f19601f820116820180604052508101906102fc9190610525565b61033b576040517f08c379a000000000000000000000000000000000000000000000000000000000815260040161033290610642565b60405180910390fd5b60016000838152602001908152602001600020549050919050565b60008054906101000a900473ffffffffffffffffffffffffffffffffffffffff1673ffffffffffffffffffffffffffffffffffffffff1663ed45f8a2836040518263ffffffff1660e01b81526004016103af9190610682565b60206040518083038186803b1580156103c757600080fd5b505afa1580156103db573d6000803e3d6000fd5b505050506040513d601f19601f820116820180604052508101906103ff9190610525565b61043e576040517f08c379a000000000000000000000000000000000000000000000000000000000815260040161043590610642565b60405180910390fd5b8060016000848152602001908152602001600020541015610494576040517f08c379a000000000000000000000000000000000000000000000000000000000815260040161048b90610662565b60405180910390fd5b806001600084815260200190815260200160002060008282546104b7919061072d565b925050819055507f91bd62feedf9dce909d424cc62c927585249e57c412c132b7f7afce98530a21f82826040516104ef92919061069d565b60405180910390a15050565b60008151905061050a816107a6565b92915050565b60008135905061051f816107bd565b92915050565b60006020828403121561053757600080fd5b6000610545848285016104fb565b91505092915050565b60006020828403121561056057600080fd5b600061056e84828501610510565b91505092915050565b6000806040838503121561058a57600080fd5b600061059885828601610510565b92505060206105a985828601610510565b9150509250929050565b60006105c06016836106c6565b91507f53747564656e74206e6f742072656769737465726564000000000000000000006000830152602082019050919050565b60006106006013836106c6565b91507f496e73756666696369656e7420706f696e7473000000000000000000000000006000830152602082019050919050565b61063c8161076d565b82525050565b6000602082019050818103600083015261065b816105b3565b9050919050565b6000602082019050818103600083015261067b816105f3565b9050919050565b60006020820190506106976000830184610633565b92915050565b60006040820190506106b26000830185610633565b6106bf6020830184610633565b9392505050565b600082825260208201905092915050565b60006106e28261076d565b91506106ed8361076d565b9250827fffffffffffffffffffffffffffffffffffffffffffffffffffffffffffffffff0382111561072257610721610777565b5b828201905092915050565b60006107388261076d565b91506107438361076d565b92508282101561075657610755610777565b5b828203905092915050565b60008115159050919050565b6000819050919050565b7f4e487b7100000000000000000000000000000000000000000000000000000000600052601160045260246000fd5b6107af81610761565b81146107ba57600080fd5b50565b6107c68161076d565b81146107d157600080fd5b5056fea26469706673582212209053d37e0e646d483c0677e7887dc42e4062df7fd64f8e7a8d2ea784a908e43d64736f6c63430008000033",
  "immutableReferences": {},
  "source": "// SPDX-License-Identifier: MIT\r\npragma solidity ^0.8.0;\r\n\r\nimport \"./StudentRegistration.sol\";\r\n\r\ncontract PointsManagement {\r\n    StudentRegistration studentRegistration;\r\n    mapping(uint256 => uint256) public studentPoints;\r\n\r\n    event PointsAwarded(uint256 studentId, uint256 points);\r\n    event PointsRedeemed(uint256 studentId, uint256 points);\r\n\r\n    modifier onlyAuthorized() {\r\n        // Logic to ensure only authorized personnel can award points\r\n        _;\r\n    }\r\n\r\n    constructor(address studentRegAddress) {\r\n        studentRegistration = StudentRegistration(studentRegAddress);\r\n    }\r\n\r\n    function awardPoints(uint256 _studentId, uint256 _points) public onlyAuthorized {\r\n        require(studentRegistration.isStudentRegistered(_studentId), \"Student not registered\");\r\n        studentPoints[_studentId] += _points;\r\n        emit PointsAwarded(_studentId, _points);\r\n    }\r\n\r\n    function redeemPoints(uint256 _studentId, uint256 _points) public {\r\n        require(studentRegistration.isStudentRegistered(_studentId), \"Student not registered\");\r\n        require(studentPoints[_studentId] >= _points, \"Insufficient points\");\r\n        studentPoints[_studentId] -= _points;\r\n        emit PointsRedeemed(_studentId, _points);\r\n        // Add logic for what happens upon redemption (e.g., claiming rewards)\r\n    }\r\n\r\n    function getPoints(uint256 _studentId) public view returns (uint256) {\r\n        require(studentRegistration.isStudentRegistered(_studentId), \"Student not registered\");\r\n        return studentPoints[_studentId];\r\n    }\r\n\r\n    // Additional functions and modifiers as needed\r\n}\r\n",
  "sourcePath": "C:\\Users\\marti\\Documents\\projects\\school-system-dapp\\contracts\\PointsManagement.sol",
  "compiler": {
    "name": "solc",
    "version": "0.8.0+commit.c7dfd78e.Emscripten.clang"
  },
  "schemaVersion": "3.4.16",
  "updatedAt": "2024-01-12T15:52:40.267Z",
  "networkType": "ethereum",
  "devdoc": {
    "kind": "dev",
    "methods": {},
    "version": 1
  },
  "userdoc": {
    "kind": "user",
    "methods": {},
    "version": 1
  }
}