{
  "contractName": "StudentRegistration",
  "abi": [
    {
      "anonymous": false,
      "inputs": [
        {
          "indexed": true,
          "internalType": "uint256",
          "name": "id",
          "type": "uint256"
        },
        {
          "indexed": false,
          "internalType": "string",
          "name": "name",
          "type": "string"
        },
        {
          "indexed": false,
          "internalType": "address",
          "name": "studentAddress",
          "type": "address"
        }
      ],
      "name": "StudentRegistered",
      "type": "event"
    },
    {
      "inputs": [],
      "name": "studentCount",
      "outputs": [
        {
          "internalType": "uint256",
          "name": "",
          "type": "uint256"
        }
      ],
      "stateMutability": "view",
      "type": "function",
      "constant": true
    },
    {
      "inputs": [
        {
          "internalType": "address",
          "name": "",
          "type": "address"
        }
      ],
      "name": "studentIds",
      "outputs": [
        {
          "internalType": "uint256",
          "name": "",
          "type": "uint256"
        }
      ],
      "stateMutability": "view",
      "type": "function",
      "constant": true
    },
    {
      "inputs": [
        {
          "internalType": "uint256",
          "name": "",
          "type": "uint256"
        }
      ],
      "name": "students",
      "outputs": [
        {
          "internalType": "uint256",
          "name": "id",
          "type": "uint256"
        },
        {
          "internalType": "string",
          "name": "name",
          "type": "string"
        },
        {
          "internalType": "address",
          "name": "studentAddress",
          "type": "address"
        }
      ],
      "stateMutability": "view",
      "type": "function",
      "constant": true
    },
    {
      "inputs": [
        {
          "internalType": "string",
          "name": "_name",
          "type": "string"
        }
      ],
      "name": "registerStudent",
      "outputs": [],
      "stateMutability": "nonpayable",
      "type": "function"
    },
    {
      "inputs": [
        {
          "internalType": "uint256",
          "name": "_id",
          "type": "uint256"
        }
      ],
      "name": "getStudent",
      "outputs": [
        {
          "components": [
            {
              "internalType": "uint256",
              "name": "id",
              "type": "uint256"
            },
            {
              "internalType": "string",
              "name": "name",
              "type": "string"
            },
            {
              "internalType": "address",
              "name": "studentAddress",
              "type": "address"
            }
          ],
          "internalType": "struct StudentRegistration.Student",
          "name": "",
          "type": "tuple"
        }
      ],
      "stateMutability": "view",
      "type": "function",
      "constant": true
    },
    {
      "inputs": [
        {
          "internalType": "uint256",
          "name": "_studentId",
          "type": "uint256"
        }
      ],
      "name": "isStudentRegistered",
      "outputs": [
        {
          "internalType": "bool",
          "name": "",
          "type": "bool"
        }
      ],
      "stateMutability": "view",
      "type": "function",
      "constant": true
    }
  ],
  "bytecode": "0x60806040526000805534801561001457600080fd5b50610cff806100246000396000f3fe608060405234801561001057600080fd5b50600436106100625760003560e01c806306ead22e14610067578063642f91631461009957806371e17445146100c9578063a9b4be5f146100e5578063e581f9ee14610115578063ed45f8a214610133575b600080fd5b610081600480360381019061007c9190610788565b610163565b60405161009093929190610a2c565b60405180910390f35b6100b360048036038101906100ae9190610788565b610235565b6040516100c091906109ef565b60405180910390f35b6100e360048036038101906100de9190610747565b6103a5565b005b6100ff60048036038101906100fa919061071e565b61057a565b60405161010c9190610a11565b60405180910390f35b61011d610592565b60405161012a9190610a11565b60405180910390f35b61014d60048036038101906101489190610788565b610598565b60405161015a9190610964565b60405180910390f35b600160205280600052604060002060009150905080600001549080600101805461018c90610b82565b80601f01602080910402602001604051908101604052809291908181526020018280546101b890610b82565b80156102055780601f106101da57610100808354040283529160200191610205565b820191906000526020600020905b8154815290600101906020018083116101e857829003601f168201915b5050505050908060020160009054906101000a900473ffffffffffffffffffffffffffffffffffffffff16905083565b61023d6105b2565b60008211801561024f57506000548211155b61028e576040517f08c379a0000000000000000000000000000000000000000000000000000000008152600401610285906109cf565b60405180910390fd5b60016000838152602001908152602001600020604051806060016040529081600082015481526020016001820180546102c690610b82565b80601f01602080910402602001604051908101604052809291908181526020018280546102f290610b82565b801561033f5780601f106103145761010080835404028352916020019161033f565b820191906000526020600020905b81548152906001019060200180831161032257829003601f168201915b505050505081526020016002820160009054906101000a900473ffffffffffffffffffffffffffffffffffffffff1673ffffffffffffffffffffffffffffffffffffffff1673ffffffffffffffffffffffffffffffffffffffff16815250509050919050565b6000600260003373ffffffffffffffffffffffffffffffffffffffff1673ffffffffffffffffffffffffffffffffffffffff1681526020019081526020016000205414610427576040517f08c379a000000000000000000000000000000000000000000000000000000000815260040161041e906109af565b60405180910390fd5b60008081548092919061043990610bb4565b9190505550604051806060016040528060005481526020018281526020013373ffffffffffffffffffffffffffffffffffffffff1681525060016000805481526020019081526020016000206000820151816000015560208201518160010190805190602001906104ab9291906105e9565b5060408201518160020160006101000a81548173ffffffffffffffffffffffffffffffffffffffff021916908373ffffffffffffffffffffffffffffffffffffffff160217905550905050600054600260003373ffffffffffffffffffffffffffffffffffffffff1673ffffffffffffffffffffffffffffffffffffffff168152602001908152602001600020819055506000547ee7355a114c82d9220dc5a07dd1d8da1d12753cb8320d9059ddb4cdd2145a1e823360405161056f92919061097f565b60405180910390a250565b60026020528060005260406000206000915090505481565b60005481565b600080821180156105ab57506000548211155b9050919050565b60405180606001604052806000815260200160608152602001600073ffffffffffffffffffffffffffffffffffffffff1681525090565b8280546105f590610b82565b90600052602060002090601f016020900481019282610617576000855561065e565b82601f1061063057805160ff191683800117855561065e565b8280016001018555821561065e579182015b8281111561065d578251825591602001919060010190610642565b5b50905061066b919061066f565b5090565b5b80821115610688576000816000905550600101610670565b5090565b600061069f61069a84610a9b565b610a6a565b9050828152602081018484840111156106b757600080fd5b6106c2848285610b40565b509392505050565b6000813590506106d981610c9b565b92915050565b600082601f8301126106f057600080fd5b813561070084826020860161068c565b91505092915050565b60008135905061071881610cb2565b92915050565b60006020828403121561073057600080fd5b600061073e848285016106ca565b91505092915050565b60006020828403121561075957600080fd5b600082013567ffffffffffffffff81111561077357600080fd5b61077f848285016106df565b91505092915050565b60006020828403121561079a57600080fd5b60006107a884828501610709565b91505092915050565b6107ba81610af8565b82525050565b6107c981610af8565b82525050565b6107d881610b0a565b82525050565b60006107e982610acb565b6107f38185610ad6565b9350610803818560208601610b4f565b61080c81610c8a565b840191505092915050565b600061082282610acb565b61082c8185610ae7565b935061083c818560208601610b4f565b61084581610c8a565b840191505092915050565b600061085d602883610ae7565b91507f416464726573732068617320616c72656164792072656769737465726564206160008301527f2073747564656e740000000000000000000000000000000000000000000000006020830152604082019050919050565b60006108c3601783610ae7565b91507f53747564656e7420646f6573206e6f742065786973742e0000000000000000006000830152602082019050919050565b600060608301600083015161090e6000860182610946565b506020830151848203602086015261092682826107de565b915050604083015161093b60408601826107b1565b508091505092915050565b61094f81610b36565b82525050565b61095e81610b36565b82525050565b600060208201905061097960008301846107cf565b92915050565b600060408201905081810360008301526109998185610817565b90506109a860208301846107c0565b9392505050565b600060208201905081810360008301526109c881610850565b9050919050565b600060208201905081810360008301526109e8816108b6565b9050919050565b60006020820190508181036000830152610a0981846108f6565b905092915050565b6000602082019050610a266000830184610955565b92915050565b6000606082019050610a416000830186610955565b8181036020830152610a538185610817565b9050610a6260408301846107c0565b949350505050565b6000604051905081810181811067ffffffffffffffff82111715610a9157610a90610c5b565b5b8060405250919050565b600067ffffffffffffffff821115610ab657610ab5610c5b565b5b601f19601f8301169050602081019050919050565b600081519050919050565b600082825260208201905092915050565b600082825260208201905092915050565b6000610b0382610b16565b9050919050565b60008115159050919050565b600073ffffffffffffffffffffffffffffffffffffffff82169050919050565b6000819050919050565b82818337600083830152505050565b60005b83811015610b6d578082015181840152602081019050610b52565b83811115610b7c576000848401525b50505050565b60006002820490506001821680610b9a57607f821691505b60208210811415610bae57610bad610c2c565b5b50919050565b6000610bbf82610b36565b91507fffffffffffffffffffffffffffffffffffffffffffffffffffffffffffffffff821415610bf257610bf1610bfd565b5b600182019050919050565b7f4e487b7100000000000000000000000000000000000000000000000000000000600052601160045260246000fd5b7f4e487b7100000000000000000000000000000000000000000000000000000000600052602260045260246000fd5b7f4e487b7100000000000000000000000000000000000000000000000000000000600052604160045260246000fd5b6000601f19601f8301169050919050565b610ca481610af8565b8114610caf57600080fd5b50565b610cbb81610b36565b8114610cc657600080fd5b5056fea2646970667358221220d24cf846d889f616d9045f36f1686e0545ef73a7d617f189e5ec792afb9e5b0064736f6c63430008000033",
  "immutableReferences": {},
  "source": "// SPDX-License-Identifier: MIT\r\npragma solidity ^0.8.0;\r\n\r\ncontract StudentRegistration {\r\n    struct Student {\r\n        uint256 id;\r\n        string name;\r\n        address studentAddress;\r\n    }\r\n\r\n    uint256 public studentCount = 0;\r\n    mapping(uint256 => Student) public students;\r\n    mapping(address => uint256) public studentIds;\r\n\r\n    event StudentRegistered(uint256 indexed id, string name, address studentAddress);\r\n\r\n    function registerStudent(string memory _name) public {\r\n        require(studentIds[msg.sender] == 0, \"Address has already registered a student\");\r\n\r\n        studentCount++;\r\n        students[studentCount] = Student(studentCount, _name, msg.sender);\r\n        studentIds[msg.sender] = studentCount;\r\n        emit StudentRegistered(studentCount, _name, msg.sender);\r\n    }\r\n\r\n    function getStudent(uint256 _id) public view returns (Student memory) {\r\n        require(_id > 0 && _id <= studentCount, \"Student does not exist.\");\r\n        return students[_id];\r\n    }\r\n\r\n    function isStudentRegistered(uint256 _studentId) public view returns (bool) {\r\n        return (_studentId > 0 && _studentId <= studentCount);\r\n    }\r\n\r\n}\r\n",
  "sourcePath": "C:\\Users\\marti\\Documents\\projects\\school-system-dapp\\contracts\\StudentRegistration.sol",
  "compiler": {
    "name": "solc",
    "version": "0.8.0+commit.c7dfd78e.Emscripten.clang"
  },
  "schemaVersion": "3.4.16",
  "updatedAt": "2024-01-19T11:27:59.200Z",
  "networkType": "ethereum",
  "devdoc": {
    "kind": "dev",
    "methods": {},
    "version": 1
  },
  "userdoc": {
    "kind": "user",
    "methods": {},
    "version": 1
  }
}