{
  "contractName": "StudentRegistration",
  "abi": [
    {
      "anonymous": false,
      "inputs": [
        {
          "indexed": true,
          "internalType": "uint256",
          "name": "id",
          "type": "uint256"
        },
        {
          "indexed": false,
          "internalType": "string",
          "name": "name",
          "type": "string"
        },
        {
          "indexed": false,
          "internalType": "address",
          "name": "studentAddress",
          "type": "address"
        }
      ],
      "name": "StudentRegistered",
      "type": "event"
    },
    {
      "inputs": [],
      "name": "studentCount",
      "outputs": [
        {
          "internalType": "uint256",
          "name": "",
          "type": "uint256"
        }
      ],
      "stateMutability": "view",
      "type": "function",
      "constant": true
    },
    {
      "inputs": [
        {
          "internalType": "address",
          "name": "",
          "type": "address"
        }
      ],
      "name": "studentIds",
      "outputs": [
        {
          "internalType": "uint256",
          "name": "",
          "type": "uint256"
        }
      ],
      "stateMutability": "view",
      "type": "function",
      "constant": true
    },
    {
      "inputs": [
        {
          "internalType": "uint256",
          "name": "",
          "type": "uint256"
        }
      ],
      "name": "students",
      "outputs": [
        {
          "internalType": "uint256",
          "name": "id",
          "type": "uint256"
        },
        {
          "internalType": "string",
          "name": "name",
          "type": "string"
        },
        {
          "internalType": "address",
          "name": "studentAddress",
          "type": "address"
        }
      ],
      "stateMutability": "view",
      "type": "function",
      "constant": true
    },
    {
      "inputs": [
        {
          "internalType": "string",
          "name": "_name",
          "type": "string"
        }
      ],
      "name": "registerStudent",
      "outputs": [],
      "stateMutability": "nonpayable",
      "type": "function"
    },
    {
      "inputs": [
        {
          "internalType": "uint256",
          "name": "_id",
          "type": "uint256"
        }
      ],
      "name": "getStudent",
      "outputs": [
        {
          "components": [
            {
              "internalType": "uint256",
              "name": "id",
              "type": "uint256"
            },
            {
              "internalType": "string",
              "name": "name",
              "type": "string"
            },
            {
              "internalType": "address",
              "name": "studentAddress",
              "type": "address"
            }
          ],
          "internalType": "struct StudentRegistration.Student",
          "name": "",
          "type": "tuple"
        }
      ],
      "stateMutability": "view",
      "type": "function",
      "constant": true
    },
    {
      "inputs": [
        {
          "internalType": "uint256",
          "name": "_studentId",
          "type": "uint256"
        }
      ],
      "name": "isStudentRegistered",
      "outputs": [
        {
          "internalType": "bool",
          "name": "",
          "type": "bool"
        }
      ],
      "stateMutability": "view",
      "type": "function",
      "constant": true
    }
  ],
  "bytecode": "0x60806040526000805534801561001457600080fd5b50610bf7806100246000396000f3fe608060405234801561001057600080fd5b50600436106100625760003560e01c806306ead22e14610067578063642f91631461009957806371e17445146100c9578063a9b4be5f146100e5578063e581f9ee14610115578063ed45f8a214610133575b600080fd5b610081600480360381019061007c9190610706565b610163565b60405161009093929190610924565b60405180910390f35b6100b360048036038101906100ae9190610706565b610235565b6040516100c091906108e7565b60405180910390f35b6100e360048036038101906100de91906106c5565b6103a5565b005b6100ff60048036038101906100fa919061069c565b6104f8565b60405161010c9190610909565b60405180910390f35b61011d610510565b60405161012a9190610909565b60405180910390f35b61014d60048036038101906101489190610706565b610516565b60405161015a919061087c565b60405180910390f35b600160205280600052604060002060009150905080600001549080600101805461018c90610a7a565b80601f01602080910402602001604051908101604052809291908181526020018280546101b890610a7a565b80156102055780601f106101da57610100808354040283529160200191610205565b820191906000526020600020905b8154815290600101906020018083116101e857829003601f168201915b5050505050908060020160009054906101000a900473ffffffffffffffffffffffffffffffffffffffff16905083565b61023d610530565b60008211801561024f57506000548211155b61028e576040517f08c379a0000000000000000000000000000000000000000000000000000000008152600401610285906108c7565b60405180910390fd5b60016000838152602001908152602001600020604051806060016040529081600082015481526020016001820180546102c690610a7a565b80601f01602080910402602001604051908101604052809291908181526020018280546102f290610a7a565b801561033f5780601f106103145761010080835404028352916020019161033f565b820191906000526020600020905b81548152906001019060200180831161032257829003601f168201915b505050505081526020016002820160009054906101000a900473ffffffffffffffffffffffffffffffffffffffff1673ffffffffffffffffffffffffffffffffffffffff1673ffffffffffffffffffffffffffffffffffffffff16815250509050919050565b6000808154809291906103b790610aac565b9190505550604051806060016040528060005481526020018281526020013373ffffffffffffffffffffffffffffffffffffffff168152506001600080548152602001908152602001600020600082015181600001556020820151816001019080519060200190610429929190610567565b5060408201518160020160006101000a81548173ffffffffffffffffffffffffffffffffffffffff021916908373ffffffffffffffffffffffffffffffffffffffff160217905550905050600054600260003373ffffffffffffffffffffffffffffffffffffffff1673ffffffffffffffffffffffffffffffffffffffff168152602001908152602001600020819055506000547ee7355a114c82d9220dc5a07dd1d8da1d12753cb8320d9059ddb4cdd2145a1e82336040516104ed929190610897565b60405180910390a250565b60026020528060005260406000206000915090505481565b60005481565b6000808211801561052957506000548211155b9050919050565b60405180606001604052806000815260200160608152602001600073ffffffffffffffffffffffffffffffffffffffff1681525090565b82805461057390610a7a565b90600052602060002090601f01602090048101928261059557600085556105dc565b82601f106105ae57805160ff19168380011785556105dc565b828001600101855582156105dc579182015b828111156105db5782518255916020019190600101906105c0565b5b5090506105e991906105ed565b5090565b5b808211156106065760008160009055506001016105ee565b5090565b600061061d61061884610993565b610962565b90508281526020810184848401111561063557600080fd5b610640848285610a38565b509392505050565b60008135905061065781610b93565b92915050565b600082601f83011261066e57600080fd5b813561067e84826020860161060a565b91505092915050565b60008135905061069681610baa565b92915050565b6000602082840312156106ae57600080fd5b60006106bc84828501610648565b91505092915050565b6000602082840312156106d757600080fd5b600082013567ffffffffffffffff8111156106f157600080fd5b6106fd8482850161065d565b91505092915050565b60006020828403121561071857600080fd5b600061072684828501610687565b91505092915050565b610738816109f0565b82525050565b610747816109f0565b82525050565b61075681610a02565b82525050565b6000610767826109c3565b61077181856109ce565b9350610781818560208601610a47565b61078a81610b82565b840191505092915050565b60006107a0826109c3565b6107aa81856109df565b93506107ba818560208601610a47565b6107c381610b82565b840191505092915050565b60006107db6017836109df565b91507f53747564656e7420646f6573206e6f742065786973742e0000000000000000006000830152602082019050919050565b6000606083016000830151610826600086018261085e565b506020830151848203602086015261083e828261075c565b9150506040830151610853604086018261072f565b508091505092915050565b61086781610a2e565b82525050565b61087681610a2e565b82525050565b6000602082019050610891600083018461074d565b92915050565b600060408201905081810360008301526108b18185610795565b90506108c0602083018461073e565b9392505050565b600060208201905081810360008301526108e0816107ce565b9050919050565b60006020820190508181036000830152610901818461080e565b905092915050565b600060208201905061091e600083018461086d565b92915050565b6000606082019050610939600083018661086d565b818103602083015261094b8185610795565b905061095a604083018461073e565b949350505050565b6000604051905081810181811067ffffffffffffffff8211171561098957610988610b53565b5b8060405250919050565b600067ffffffffffffffff8211156109ae576109ad610b53565b5b601f19601f8301169050602081019050919050565b600081519050919050565b600082825260208201905092915050565b600082825260208201905092915050565b60006109fb82610a0e565b9050919050565b60008115159050919050565b600073ffffffffffffffffffffffffffffffffffffffff82169050919050565b6000819050919050565b82818337600083830152505050565b60005b83811015610a65578082015181840152602081019050610a4a565b83811115610a74576000848401525b50505050565b60006002820490506001821680610a9257607f821691505b60208210811415610aa657610aa5610b24565b5b50919050565b6000610ab782610a2e565b91507fffffffffffffffffffffffffffffffffffffffffffffffffffffffffffffffff821415610aea57610ae9610af5565b5b600182019050919050565b7f4e487b7100000000000000000000000000000000000000000000000000000000600052601160045260246000fd5b7f4e487b7100000000000000000000000000000000000000000000000000000000600052602260045260246000fd5b7f4e487b7100000000000000000000000000000000000000000000000000000000600052604160045260246000fd5b6000601f19601f8301169050919050565b610b9c816109f0565b8114610ba757600080fd5b50565b610bb381610a2e565b8114610bbe57600080fd5b5056fea264697066735822122042bcead85da93ef4d4d3ba52524aa74a1f9b3b44ecc8c4dd61e39f627f22070d64736f6c63430008000033",
  "immutableReferences": {},
  "source": "// SPDX-License-Identifier: MIT\r\npragma solidity ^0.8.0;\r\n\r\ncontract StudentRegistration {\r\n    struct Student {\r\n        uint256 id;\r\n        string name;\r\n        address studentAddress;\r\n    }\r\n\r\n    uint256 public studentCount = 0;\r\n    mapping(uint256 => Student) public students;\r\n    mapping(address => uint256) public studentIds;\r\n\r\n    event StudentRegistered(uint256 indexed id, string name, address studentAddress);\r\n\r\n    function registerStudent(string memory _name) public {\r\n        studentCount++;\r\n        students[studentCount] = Student(studentCount, _name, msg.sender);\r\n        studentIds[msg.sender] = studentCount;\r\n        emit StudentRegistered(studentCount, _name, msg.sender);\r\n    }\r\n\r\n    function getStudent(uint256 _id) public view returns (Student memory) {\r\n        require(_id > 0 && _id <= studentCount, \"Student does not exist.\");\r\n        return students[_id];\r\n    }\r\n\r\n    function isStudentRegistered(uint256 _studentId) public view returns (bool) {\r\n        return (_studentId > 0 && _studentId <= studentCount);\r\n    }\r\n\r\n}\r\n",
  "sourcePath": "C:\\Users\\marti\\Documents\\projects\\school-system-dapp\\contracts\\StudentRegistration.sol",
  "compiler": {
    "name": "solc",
    "version": "0.8.0+commit.c7dfd78e.Emscripten.clang"
  },
  "schemaVersion": "3.4.16",
  "updatedAt": "2024-01-12T15:52:40.258Z",
  "networkType": "ethereum",
  "devdoc": {
    "kind": "dev",
    "methods": {},
    "version": 1
  },
  "userdoc": {
    "kind": "user",
    "methods": {},
    "version": 1
  }
}