{
  "contractName": "SubjectManagement",
  "abi": [
    {
      "inputs": [
        {
          "internalType": "address",
          "name": "studentRegAddress",
          "type": "address"
        }
      ],
      "stateMutability": "nonpayable",
      "type": "constructor"
    },
    {
      "inputs": [
        {
          "internalType": "string",
          "name": "",
          "type": "string"
        }
      ],
      "name": "subjects",
      "outputs": [
        {
          "internalType": "bool",
          "name": "",
          "type": "bool"
        }
      ],
      "stateMutability": "view",
      "type": "function"
    },
    {
      "inputs": [
        {
          "internalType": "string",
          "name": "_subjectName",
          "type": "string"
        }
      ],
      "name": "addSubject",
      "outputs": [],
      "stateMutability": "nonpayable",
      "type": "function"
    },
    {
      "inputs": [
        {
          "internalType": "uint256",
          "name": "_studentId",
          "type": "uint256"
        },
        {
          "internalType": "string",
          "name": "_subjectName",
          "type": "string"
        }
      ],
      "name": "assignSubjectToStudent",
      "outputs": [],
      "stateMutability": "nonpayable",
      "type": "function"
    },
    {
      "inputs": [
        {
          "internalType": "uint256",
          "name": "_studentId",
          "type": "uint256"
        },
        {
          "internalType": "string",
          "name": "_subjectName",
          "type": "string"
        }
      ],
      "name": "isStudentEnrolledInSubject",
      "outputs": [
        {
          "internalType": "bool",
          "name": "",
          "type": "bool"
        }
      ],
      "stateMutability": "view",
      "type": "function"
    },
    {
      "inputs": [
        {
          "internalType": "uint256",
          "name": "_studentId",
          "type": "uint256"
        }
      ],
      "name": "getSubjectsForStudent",
      "outputs": [
        {
          "internalType": "string[]",
          "name": "",
          "type": "string[]"
        }
      ],
      "stateMutability": "view",
      "type": "function"
    }
  ],
  "bytecode": "0x608060405234801561001057600080fd5b506040516200114d3803806200114d8339818101604052810190610034919061008f565b806000806101000a81548173ffffffffffffffffffffffffffffffffffffffff021916908373ffffffffffffffffffffffffffffffffffffffff16021790555050610101565b600081519050610089816100ea565b92915050565b6000602082840312156100a157600080fd5b60006100af8482850161007a565b91505092915050565b60006100c3826100ca565b9050919050565b600073ffffffffffffffffffffffffffffffffffffffff82169050919050565b6100f3816100b8565b81146100fe57600080fd5b50565b61103c80620001116000396000f3fe608060405234801561001057600080fd5b50600436106100575760003560e01c80630667867f1461005c578063203cbdbb14610078578063d6c11d2d146100a8578063f57f0c9c146100c4578063fe290423146100f4575b600080fd5b610076600480360381019061007191906109ec565b610124565b005b610092600480360381019061008d9190610a2d565b610199565b60405161009f9190610ce8565b60405180910390f35b6100c260048036038101906100bd9190610a56565b610589565b005b6100de60048036038101906100d99190610a56565b610728565b6040516100eb9190610d0a565b60405180910390f35b61010e600480360381019061010991906109ec565b610858565b60405161011b9190610d0a565b60405180910390f35b600180826040516101359190610cba565b908152602001604051809103902060006101000a81548160ff02191690831515021790555060028190806001815401808255809150506001900390600052602060002001600090919091909150908051906020019061019592919061088e565b5050565b606060008054906101000a900473ffffffffffffffffffffffffffffffffffffffff1673ffffffffffffffffffffffffffffffffffffffff1663ed45f8a2836040518263ffffffff1660e01b81526004016101f49190610d65565b60206040518083038186803b15801561020c57600080fd5b505afa158015610220573d6000803e3d6000fd5b505050506040513d601f19601f8201168201806040525081019061024491906109c3565b610283576040517f08c379a000000000000000000000000000000000000000000000000000000000815260040161027a90610d25565b60405180910390fd5b6000805b60028054905081101561033b5760036000858152602001908152602001600020600282815481106102e1577f4e487b7100000000000000000000000000000000000000000000000000000000600052603260045260246000fd5b906000526020600020016040516102f89190610cd1565b908152602001604051809103902060009054906101000a900460ff161561032857818061032490610ef1565b9250505b808061033390610ef1565b915050610287565b5060008167ffffffffffffffff81111561037e577f4e487b7100000000000000000000000000000000000000000000000000000000600052604160045260246000fd5b6040519080825280602002602001820160405280156103b157816020015b606081526020019060019003908161039c5790505b5090506000805b60028054905081101561057d576003600087815260200190815260200160002060028281548110610412577f4e487b7100000000000000000000000000000000000000000000000000000000600052603260045260246000fd5b906000526020600020016040516104299190610cd1565b908152602001604051809103902060009054906101000a900460ff161561056a5760028181548110610484577f4e487b7100000000000000000000000000000000000000000000000000000000600052603260045260246000fd5b90600052602060002001805461049990610ebf565b80601f01602080910402602001604051908101604052809291908181526020018280546104c590610ebf565b80156105125780601f106104e757610100808354040283529160200191610512565b820191906000526020600020905b8154815290600101906020018083116104f557829003601f168201915b5050505050838381518110610550577f4e487b7100000000000000000000000000000000000000000000000000000000600052603260045260246000fd5b6020026020010181905250818061056690610ef1565b9250505b808061057590610ef1565b9150506103b8565b50819350505050919050565b60008054906101000a900473ffffffffffffffffffffffffffffffffffffffff1673ffffffffffffffffffffffffffffffffffffffff1663ed45f8a2836040518263ffffffff1660e01b81526004016105e29190610d65565b60206040518083038186803b1580156105fa57600080fd5b505afa15801561060e573d6000803e3d6000fd5b505050506040513d601f19601f8201168201806040525081019061063291906109c3565b610671576040517f08c379a000000000000000000000000000000000000000000000000000000000815260040161066890610d25565b60405180910390fd5b6001816040516106819190610cba565b908152602001604051809103902060009054906101000a900460ff166106dc576040517f08c379a00000000000000000000000000000000000000000000000000000000081526004016106d390610d45565b60405180910390fd5b600160036000848152602001908152602001600020826040516106ff9190610cba565b908152602001604051809103902060006101000a81548160ff0219169083151502179055505050565b60008060009054906101000a900473ffffffffffffffffffffffffffffffffffffffff1673ffffffffffffffffffffffffffffffffffffffff1663ed45f8a2846040518263ffffffff1660e01b81526004016107849190610d65565b60206040518083038186803b15801561079c57600080fd5b505afa1580156107b0573d6000803e3d6000fd5b505050506040513d601f19601f820116820180604052508101906107d491906109c3565b610813576040517f08c379a000000000000000000000000000000000000000000000000000000000815260040161080a90610d25565b60405180910390fd5b60036000848152602001908152602001600020826040516108349190610cba565b908152602001604051809103902060009054906101000a900460ff16905092915050565b6001818051602081018201805184825260208301602085012081835280955050505050506000915054906101000a900460ff1681565b82805461089a90610ebf565b90600052602060002090601f0160209004810192826108bc5760008555610903565b82601f106108d557805160ff1916838001178555610903565b82800160010185558215610903579182015b828111156109025782518255916020019190600101906108e7565b5b5090506109109190610914565b5090565b5b8082111561092d576000816000905550600101610915565b5090565b600061094461093f84610db1565b610d80565b90508281526020810184848401111561095c57600080fd5b610967848285610e7d565b509392505050565b60008151905061097e81610fd8565b92915050565b600082601f83011261099557600080fd5b81356109a5848260208601610931565b91505092915050565b6000813590506109bd81610fef565b92915050565b6000602082840312156109d557600080fd5b60006109e38482850161096f565b91505092915050565b6000602082840312156109fe57600080fd5b600082013567ffffffffffffffff811115610a1857600080fd5b610a2484828501610984565b91505092915050565b600060208284031215610a3f57600080fd5b6000610a4d848285016109ae565b91505092915050565b60008060408385031215610a6957600080fd5b6000610a77858286016109ae565b925050602083013567ffffffffffffffff811115610a9457600080fd5b610aa085828601610984565b9150509250929050565b6000610ab68383610b42565b905092915050565b6000610ac982610e06565b610ad38185610e29565b935083602082028501610ae585610de1565b8060005b85811015610b215784840389528151610b028582610aaa565b9450610b0d83610e1c565b925060208a01995050600181019050610ae9565b50829750879550505050505092915050565b610b3c81610e67565b82525050565b6000610b4d82610e11565b610b578185610e3a565b9350610b67818560208601610e8c565b610b7081610fc7565b840191505092915050565b6000610b8682610e11565b610b908185610e5c565b9350610ba0818560208601610e8c565b80840191505092915050565b60008154610bb981610ebf565b610bc38186610e5c565b94506001821660008114610bde5760018114610bef57610c22565b60ff19831686528186019350610c22565b610bf885610df1565b60005b83811015610c1a57815481890152600182019150602081019050610bfb565b838801955050505b50505092915050565b6000610c38601683610e4b565b91507f53747564656e74206e6f742072656769737465726564000000000000000000006000830152602082019050919050565b6000610c78601683610e4b565b91507f5375626a656374206e6f742072656769737465726564000000000000000000006000830152602082019050919050565b610cb481610e73565b82525050565b6000610cc68284610b7b565b915081905092915050565b6000610cdd8284610bac565b915081905092915050565b60006020820190508181036000830152610d028184610abe565b905092915050565b6000602082019050610d1f6000830184610b33565b92915050565b60006020820190508181036000830152610d3e81610c2b565b9050919050565b60006020820190508181036000830152610d5e81610c6b565b9050919050565b6000602082019050610d7a6000830184610cab565b92915050565b6000604051905081810181811067ffffffffffffffff82111715610da757610da6610f98565b5b8060405250919050565b600067ffffffffffffffff821115610dcc57610dcb610f98565b5b601f19601f8301169050602081019050919050565b6000819050602082019050919050565b60008190508160005260206000209050919050565b600081519050919050565b600081519050919050565b6000602082019050919050565b600082825260208201905092915050565b600082825260208201905092915050565b600082825260208201905092915050565b600081905092915050565b60008115159050919050565b6000819050919050565b82818337600083830152505050565b60005b83811015610eaa578082015181840152602081019050610e8f565b83811115610eb9576000848401525b50505050565b60006002820490506001821680610ed757607f821691505b60208210811415610eeb57610eea610f69565b5b50919050565b6000610efc82610e73565b91507fffffffffffffffffffffffffffffffffffffffffffffffffffffffffffffffff821415610f2f57610f2e610f3a565b5b600182019050919050565b7f4e487b7100000000000000000000000000000000000000000000000000000000600052601160045260246000fd5b7f4e487b7100000000000000000000000000000000000000000000000000000000600052602260045260246000fd5b7f4e487b7100000000000000000000000000000000000000000000000000000000600052604160045260246000fd5b6000601f19601f8301169050919050565b610fe181610e67565b8114610fec57600080fd5b50565b610ff881610e73565b811461100357600080fd5b5056fea2646970667358221220b398b2ab09eba6813e2ceccd0bb1c479b8b1b4ad3d674ecb02e37f44d41e94fd64736f6c63430008000033",
  "immutableReferences": {},
  "source": "// SPDX-License-Identifier: MIT\r\npragma solidity ^0.8.0;\r\n\r\nimport \"./StudentRegistration.sol\";\r\n\r\ncontract SubjectManagement {\r\n    StudentRegistration studentRegistration;\r\n\r\n    mapping(string => bool) public subjects; // Registered subjects\r\n    string[] private subjectList; // List to store all subject names\r\n\r\n    mapping(uint256 => mapping(string => bool)) studentSubjects; // Mapping of student to subjects\r\n\r\n    constructor(address studentRegAddress) {\r\n        studentRegistration = StudentRegistration(studentRegAddress);\r\n    }\r\n\r\n    function addSubject(string memory _subjectName) public {\r\n        subjects[_subjectName] = true;\r\n        subjectList.push(_subjectName); // Add the new subject to the list\r\n    }\r\n\r\n    function assignSubjectToStudent(uint256 _studentId, string memory _subjectName) public {\r\n        require(studentRegistration.isStudentRegistered(_studentId), \"Student not registered\");\r\n        require(subjects[_subjectName], \"Subject not registered\");\r\n        studentSubjects[_studentId][_subjectName] = true;\r\n    }\r\n\r\n    function isStudentEnrolledInSubject(uint256 _studentId, string memory _subjectName) public view returns (bool) {\r\n        require(studentRegistration.isStudentRegistered(_studentId), \"Student not registered\");\r\n        return studentSubjects[_studentId][_subjectName];\r\n    }\r\n\r\n    // Function to return a list of subjects for a student\r\n    function getSubjectsForStudent(uint256 _studentId) public view returns (string[] memory) {\r\n        require(studentRegistration.isStudentRegistered(_studentId), \"Student not registered\");\r\n\r\n        uint256 subjectCount = 0;\r\n        for (uint256 i = 0; i < subjectList.length; i++) {\r\n            if (studentSubjects[_studentId][subjectList[i]]) {\r\n                subjectCount++;\r\n            }\r\n        }\r\n\r\n        string[] memory enrolledSubjects = new string[](subjectCount);\r\n        uint256 counter = 0;\r\n        for (uint256 i = 0; i < subjectList.length; i++) {\r\n            if (studentSubjects[_studentId][subjectList[i]]) {\r\n                enrolledSubjects[counter] = subjectList[i];\r\n                counter++;\r\n            }\r\n        }\r\n        return enrolledSubjects;\r\n    }\r\n}\r\n",
  "sourcePath": "C:\\Users\\marti\\Documents\\projects\\school-system-dapp\\contracts\\SubjectManagement.sol",
  "compiler": {
    "name": "solc",
    "version": "0.8.0+commit.c7dfd78e.Emscripten.clang"
  },
  "schemaVersion": "3.4.16",
  "updatedAt": "2024-03-22T12:13:13.925Z",
  "devdoc": {
    "kind": "dev",
    "methods": {},
    "version": 1
  },
  "userdoc": {
    "kind": "user",
    "methods": {},
    "version": 1
  }
}