{
  "contractName": "TestManagement",
  "abi": [
    {
      "inputs": [
        {
          "internalType": "address",
          "name": "_studentRegAddress",
          "type": "address"
        }
      ],
      "stateMutability": "nonpayable",
      "type": "constructor"
    },
    {
      "anonymous": false,
      "inputs": [
        {
          "indexed": true,
          "internalType": "uint256",
          "name": "id",
          "type": "uint256"
        },
        {
          "indexed": false,
          "internalType": "string",
          "name": "name",
          "type": "string"
        }
      ],
      "name": "TestCreated",
      "type": "event"
    },
    {
      "anonymous": false,
      "inputs": [
        {
          "indexed": true,
          "internalType": "uint256",
          "name": "testId",
          "type": "uint256"
        },
        {
          "indexed": true,
          "internalType": "uint256",
          "name": "studentId",
          "type": "uint256"
        },
        {
          "indexed": false,
          "internalType": "uint256",
          "name": "score",
          "type": "uint256"
        }
      ],
      "name": "TestTaken",
      "type": "event"
    },
    {
      "inputs": [
        {
          "internalType": "uint256",
          "name": "",
          "type": "uint256"
        },
        {
          "internalType": "uint256",
          "name": "",
          "type": "uint256"
        }
      ],
      "name": "studentTestScores",
      "outputs": [
        {
          "internalType": "uint256",
          "name": "",
          "type": "uint256"
        }
      ],
      "stateMutability": "view",
      "type": "function",
      "constant": true
    },
    {
      "inputs": [],
      "name": "testCount",
      "outputs": [
        {
          "internalType": "uint256",
          "name": "",
          "type": "uint256"
        }
      ],
      "stateMutability": "view",
      "type": "function",
      "constant": true
    },
    {
      "inputs": [
        {
          "internalType": "uint256",
          "name": "",
          "type": "uint256"
        }
      ],
      "name": "tests",
      "outputs": [
        {
          "internalType": "uint256",
          "name": "id",
          "type": "uint256"
        },
        {
          "internalType": "string",
          "name": "name",
          "type": "string"
        },
        {
          "internalType": "bool",
          "name": "isActive",
          "type": "bool"
        }
      ],
      "stateMutability": "view",
      "type": "function",
      "constant": true
    },
    {
      "inputs": [
        {
          "internalType": "string",
          "name": "_name",
          "type": "string"
        }
      ],
      "name": "createTest",
      "outputs": [],
      "stateMutability": "nonpayable",
      "type": "function"
    },
    {
      "inputs": [
        {
          "internalType": "uint256",
          "name": "_testId",
          "type": "uint256"
        },
        {
          "internalType": "uint256",
          "name": "_studentId",
          "type": "uint256"
        },
        {
          "internalType": "uint256",
          "name": "_score",
          "type": "uint256"
        }
      ],
      "name": "recordTestScore",
      "outputs": [],
      "stateMutability": "nonpayable",
      "type": "function"
    }
  ],
  "bytecode": "0x6080604052600060015534801561001557600080fd5b50604051610d58380380610d5883398181016040528101906100379190610092565b806000806101000a81548173ffffffffffffffffffffffffffffffffffffffff021916908373ffffffffffffffffffffffffffffffffffffffff16021790555050610104565b60008151905061008c816100ed565b92915050565b6000602082840312156100a457600080fd5b60006100b28482850161007d565b91505092915050565b60006100c6826100cd565b9050919050565b600073ffffffffffffffffffffffffffffffffffffffff82169050919050565b6100f6816100bb565b811461010157600080fd5b50565b610c45806101136000396000f3fe608060405234801561001057600080fd5b50600436106100575760003560e01c80639590d4b91461005c578063bb9487391461007a578063c0c442d014610096578063dd59cd2e146100b2578063de22c8d4146100e2575b600080fd5b610064610114565b6040516100719190610968565b60405180910390f35b610094600480360381019061008f91906107ba565b61011a565b005b6100b060048036038101906100ab91906106d3565b6102f1565b005b6100cc60048036038101906100c7919061077e565b6103c5565b6040516100d99190610968565b60405180910390f35b6100fc60048036038101906100f79190610755565b6103ea565b60405161010b93929190610983565b60405180910390f35b60015481565b60008311801561012c57506001548311155b801561015857506002600084815260200190815260200160002060020160009054906101000a900460ff165b610197576040517f08c379a000000000000000000000000000000000000000000000000000000000815260040161018e90610928565b60405180910390fd5b8160008054906101000a900473ffffffffffffffffffffffffffffffffffffffff1673ffffffffffffffffffffffffffffffffffffffff1663642f9163846040518263ffffffff1660e01b81526004016101f19190610968565b60006040518083038186803b15801561020957600080fd5b505afa15801561021d573d6000803e3d6000fd5b505050506040513d6000823e3d601f19601f820116820180604052508101906102469190610714565b600001511461028a576040517f08c379a000000000000000000000000000000000000000000000000000000000815260040161028190610948565b60405180910390fd5b806003600085815260200190815260200160002060008481526020019081526020016000208190555081837fa631aef522ec3c4f7c4221b4f48888b75c65e155d32105e9b53faf88b186a5c0836040516102e49190610968565b60405180910390a3505050565b6001600081548092919061030490610afa565b919050555060405180606001604052806001548152602001828152602001600115158152506002600060015481526020019081526020016000206000820151816000015560208201518160010190805190602001906103649291906104a9565b5060408201518160020160006101000a81548160ff0219169083151502179055509050506001547fd4176c9cf41a5fa88532dc34f0437e41ac6614b489b163aee07445a0291407e7826040516103ba9190610906565b60405180910390a250565b6003602052816000526040600020602052806000526040600020600091509150505481565b600260205280600052604060002060009150905080600001549080600101805461041390610ac8565b80601f016020809104026020016040519081016040528092919081815260200182805461043f90610ac8565b801561048c5780601f106104615761010080835404028352916020019161048c565b820191906000526020600020905b81548152906001019060200180831161046f57829003601f168201915b5050505050908060020160009054906101000a900460ff16905083565b8280546104b590610ac8565b90600052602060002090601f0160209004810192826104d7576000855561051e565b82601f106104f057805160ff191683800117855561051e565b8280016001018555821561051e579182015b8281111561051d578251825591602001919060010190610502565b5b50905061052b919061052f565b5090565b5b80821115610548576000816000905550600101610530565b5090565b600061055f61055a846109f2565b6109c1565b90508281526020810184848401111561057757600080fd5b610582848285610a86565b509392505050565b600061059d610598846109f2565b6109c1565b9050828152602081018484840111156105b557600080fd5b6105c0848285610a95565b509392505050565b6000815190506105d781610be1565b92915050565b600082601f8301126105ee57600080fd5b81356105fe84826020860161054c565b91505092915050565b600082601f83011261061857600080fd5b815161062884826020860161058a565b91505092915050565b60006060828403121561064357600080fd5b61064d60606109c1565b9050600061065d848285016106be565b600083015250602082015167ffffffffffffffff81111561067d57600080fd5b61068984828501610607565b602083015250604061069d848285016105c8565b60408301525092915050565b6000813590506106b881610bf8565b92915050565b6000815190506106cd81610bf8565b92915050565b6000602082840312156106e557600080fd5b600082013567ffffffffffffffff8111156106ff57600080fd5b61070b848285016105dd565b91505092915050565b60006020828403121561072657600080fd5b600082015167ffffffffffffffff81111561074057600080fd5b61074c84828501610631565b91505092915050565b60006020828403121561076757600080fd5b6000610775848285016106a9565b91505092915050565b6000806040838503121561079157600080fd5b600061079f858286016106a9565b92505060206107b0858286016106a9565b9150509250929050565b6000806000606084860312156107cf57600080fd5b60006107dd868287016106a9565b93505060206107ee868287016106a9565b92505060406107ff868287016106a9565b9150509250925092565b61081281610a50565b82525050565b600061082382610a22565b61082d8185610a2d565b935061083d818560208601610a95565b61084681610bd0565b840191505092915050565b600061085e602583610a2d565b91507f5465737420646f6573206e6f74206578697374206f72206973206e6f7420616360008301527f746976652e0000000000000000000000000000000000000000000000000000006020830152604082019050919050565b60006108c4601a83610a2d565b91507f53747564656e74206973206e6f7420726567697374657265642e0000000000006000830152602082019050919050565b61090081610a7c565b82525050565b600060208201905081810360008301526109208184610818565b905092915050565b6000602082019050818103600083015261094181610851565b9050919050565b60006020820190508181036000830152610961816108b7565b9050919050565b600060208201905061097d60008301846108f7565b92915050565b600060608201905061099860008301866108f7565b81810360208301526109aa8185610818565b90506109b96040830184610809565b949350505050565b6000604051905081810181811067ffffffffffffffff821117156109e8576109e7610ba1565b5b8060405250919050565b600067ffffffffffffffff821115610a0d57610a0c610ba1565b5b601f19601f8301169050602081019050919050565b600081519050919050565b600082825260208201905092915050565b6000610a4982610a5c565b9050919050565b60008115159050919050565b600073ffffffffffffffffffffffffffffffffffffffff82169050919050565b6000819050919050565b82818337600083830152505050565b60005b83811015610ab3578082015181840152602081019050610a98565b83811115610ac2576000848401525b50505050565b60006002820490506001821680610ae057607f821691505b60208210811415610af457610af3610b72565b5b50919050565b6000610b0582610a7c565b91507fffffffffffffffffffffffffffffffffffffffffffffffffffffffffffffffff821415610b3857610b37610b43565b5b600182019050919050565b7f4e487b7100000000000000000000000000000000000000000000000000000000600052601160045260246000fd5b7f4e487b7100000000000000000000000000000000000000000000000000000000600052602260045260246000fd5b7f4e487b7100000000000000000000000000000000000000000000000000000000600052604160045260246000fd5b6000601f19601f8301169050919050565b610bea81610a3e565b8114610bf557600080fd5b50565b610c0181610a7c565b8114610c0c57600080fd5b5056fea26469706673582212202452935ee8fb963f3334c971de681c9c605bee6a204c193c9fda27227248720a64736f6c63430008000033",
  "immutableReferences": {},
  "source": "// SPDX-License-Identifier: MIT\r\npragma solidity ^0.8.0;\r\n\r\nimport \"./StudentRegistration.sol\";\r\n\r\ncontract TestManagement {\r\n    StudentRegistration studentRegistration;\r\n\r\n    struct Test {\r\n        uint256 id;\r\n        string name;\r\n        bool isActive;\r\n    }\r\n\r\n    uint256 public testCount = 0;\r\n    mapping(uint256 => Test) public tests;\r\n    mapping(uint256 => mapping(uint256 => uint256)) public studentTestScores; // Mapping from test ID to student ID to score\r\n\r\n    event TestCreated(uint256 indexed id, string name);\r\n    event TestTaken(uint256 indexed testId, uint256 indexed studentId, uint256 score);\r\n\r\n    constructor(address _studentRegAddress) {\r\n        studentRegistration = StudentRegistration(_studentRegAddress);\r\n    }\r\n\r\n    function createTest(string memory _name) public {\r\n        testCount++;\r\n        tests[testCount] = Test(testCount, _name, true);\r\n        emit TestCreated(testCount, _name);\r\n    }\r\n\r\n    function recordTestScore(uint256 _testId, uint256 _studentId, uint256 _score) public {\r\n        // Check if the test exists and is active\r\n        require(_testId > 0 && _testId <= testCount && tests[_testId].isActive, \"Test does not exist or is not active.\");\r\n        // Check if the student is registered\r\n        require(studentRegistration.getStudent(_studentId).id == _studentId, \"Student is not registered.\");\r\n\r\n        studentTestScores[_testId][_studentId] = _score;\r\n        emit TestTaken(_testId, _studentId, _score);\r\n    }\r\n\r\n    // Add other necessary functions and modifiers as needed\r\n}\r\n",
  "sourcePath": "C:\\Users\\marti\\Documents\\projects\\school-system-dapp\\contracts\\TestManagement.sol",
  "compiler": {
    "name": "solc",
    "version": "0.8.0+commit.c7dfd78e.Emscripten.clang"
  },
  "schemaVersion": "3.4.16",
  "updatedAt": "2024-03-22T12:13:17.760Z",
  "networkType": "ethereum",
  "devdoc": {
    "kind": "dev",
    "methods": {},
    "version": 1
  },
  "userdoc": {
    "kind": "user",
    "methods": {},
    "version": 1
  }
}